:020000040800F2
:100000009011002051400008594000085B40000852
:100010005D4000085F4000086140000800000000EB
:100020000000000000000000000000006340000825
:1000300065400008000000006740000869400008B3
:100040006B4000086B4000086B4000086B400008E4
:100050006B4000086B4000086B4000086B400008D4
:100060006B4000086B4000086B4000086B400008C4
:100070006B4000086B4000086B4000086B400008B4
:100080006B4000086B4000086B4000086B400008A4
:100090006B4000086B4000086B4000086B40000894
:1000A0006B4000086B4000086B4000086B40000884
:1000B000C5590008EF5900086B4000086B40000864
:1000C0006B4000086B4000086B4000086B40000864
:1000D0006B400008735C0008EB5B0008635B000882
:1000E0006B4000086B4000086B4000086B40000844
:1000F0006B4000086B4000086B4000086B40000834
:100100006B4000086B4000086B4000086B40000823
:100110006B4000086B4000086B4000086B40000813
:100120006B4000086B4000086B4000086B40000803
:100130006B4000086B4000086B4000086B400008F3
:100140006B4000086B4000086B4000086B400008E3
:100150006B4000086B4000086B4000086B400008D3
:100160006B4000086B4000086B4000086B400008C3
:100170006B4000086B4000086B4000086B400008B3
:100180006B4000086B40000800F002F803F051FFDC
:100190000AA090E8000C82448344AAF10107DA45E2
:1001A00001D103F046FFAFF2090EBAE80F0013F0D9
:1001B000010F18BFFB1A43F001031847800000002D
:1001C000A00000000A444FF0000C10F8013B13F0AF
:1001D000070408BF10F8014B1D1108BF10F8015BA0
:1001E000641E05D010F8016B641E01F8016BF9D193
:1001F00013F0080F1EBF10F8014BAD1C0C1B09D1EA
:100200006D1E58BF01F801CBFAD505E014F8016B5B
:1002100001F8016B6D1EF9D59142D6D370470000ED
:100220000023002400250026103A28BF78C1FBD8FF
:10023000520728BF30C148BF0B6070475C020008FE
:10024000000000206C020000C401000894030008B4
:100250006C020020240F000020020008912808C131
:10026000814001C0804104690C2908E918A91C09D2
:100270001A30091638093660092E70092F6000FF00
:1002800000C0C101C30302C2C60607C705C5C40436
:10029000CC0C0DCD0FCFCE0E0ACACB0BC90908C8A6
:1002A000D81819D91BDBDA1A1EDEDF1FDD1D1CDC96
:1002B00014D4D515D71716D6D21213D311D1D01006
:1002C000F03031F133F3F23236F6F737F53534F4F6
:1002D0003CFCFD3DFF3F3EFEFA3A3BFB39F9F83866
:1002E00028E8E929EB2B2AEAEE2E2FEF2DEDEC2C56
:1002F000E42425E527E7E62622E2E323E12120E0C6
:10030000A06061A163A3A26266A6A767A56564A4B5
:100310006CACAD6DAF6F6EAEAA6A6BAB69A9A86825
:1003200078B8B979BB7B7ABABE7E7FBF7DBDBC7C15
:10033000B47475B577B7B67672B2B373B17170B085
:100340005090915193535292965657975595945475
:100350009C5C5D9D5F9F9E5E5A9A9B5B99595898E5
:10036000884849894B8B8A4A4E8E8F4F8D4D4C8CD5
:100370004484854587474686824243834181804243
:100380004072502D01020304041506070809024AB1
:040390001000000059
:020000040800F2
:10400000662903F0FB86642902F0EE82782902F02B
:104010002783002070471FB503F0EBFE02F06EFE11
:1040200004000020002103F0C7FBE0601FBD10B5B5
:1040300010BD02F07BFF1146FFF7EDFF00F028F8FE
:1040400002F099FF03B4FFF7F2FF03BC00F0C8FAD7
:104050000948804709480047FEE7FEE7FEE7FEE71C
:10406000FEE7FEE7FEE7FEE7FEE7FEE70448054958
:10407000054A064B70470000415E000889010008B0
:10408000900B002090110020900D0020900D00203A
:1040900000F018F800F00AF901F097FF00F078F945
:1040A000074C00BF02F075F900F004FA00F0FDFBC8
:1040B00002F007FA20780128F4D101F08DFFF1E732
:1040C000540200207CB501217E2001F042FA002438
:1040D000BB4D0094012322460D212846019400F097
:1040E0001FFE012300941A460E212846019400F079
:1040F00017FE012300941A460F212846019400F070
:104100000FFEB04E012300941A4600213046019460
:1041100000F006FE012300941A4619463046019429
:1041200000F0FEFD012300941A460221304601945E
:1041300000F0F6FD012300941A4603213046019455
:1041400000F0EEFD012300941A460621304601944A
:1041500000F0E6FD0220CDE9004003230122072103
:10416000304600F0DDFD012300941A460B21304655
:10417000019400F0D5FD012300941A460C2130462D
:10418000019400F0CDFD904E012300941A460921C0
:104190003046019400F0C4FD012300941A460A2120
:1041A0003046019400F0BCFD012300941A460B2117
:1041B0003046019400F0B4FD012300941A460C210E
:1041C0003046019400F0ACFD0094012300220D2143
:1041D0003046019400F0A4FD0094012300220F2139
:1041E0003046019400F09CFD784E0094012300229B
:1041F00002213046019400F093FD00940123002237
:1042000003213046019400F08BFD012300941A46EF
:1042100004213046019400F083FD012300941A46E6
:1042200006213046019400F07BFD012300941A46DC
:1042300007213046019400F073FD00940123002211
:1042400008213046019400F06BFD00940123002208
:1042500006212846019400F063FD0094012300220A
:1042600007212846019400F05BFD012300941A46C3
:104270000D213046019400F053FD012300941A46AD
:104280000F213046019400F04BFD012300941A46A3
:1042900019464F48019400F043FD012300941A464B
:1042A0000C212846019400F03BFD7CBD2DE9F04136
:1042B00043494FF400541A310C80A5000D80414849
:1042C00001221A3002804FF0020CA0F800C0042234
:1042D000028008220280402202808023038046154B
:1042E00039481A30068006150680C71407808614E0
:1042F0000680048035481A300580028003803448E7
:10430000A0F81AC00E80002201211C2001F000F943
:10431000012202211D2001F0FBF801F002FB01F057
:10432000D7FC02220321252001F0F2F801231A46CE
:104330004FF49641274801F02DFD03220421272048
:1043400001F0E6F801231A464FF41641224801F025
:1043500021FD04220521262001F0DAF801230022A4
:104360004FF4E1311D4801F015FD00F032FC154815
:1043700018300780068000220121194801F0EBF96E
:104380001248183004800580BDE8F04101F047B8BC
:10439000144910B5002008700223134A0421A020FC
:1043A00000F0E5FF1048018849BA0BB20F490B80B5
:1043B00042780178BDE810400DA002F009B9000074
:1043C0000008024000140240000C024000180240A5
:1043D000001002400010014000480040004400402E
:1043E000003001405C020020000000205E0200203E
:1043F0005374617274206F66667365745B25785DB3
:104400005B25785D3D3D5B25645D200000215B48B8
:10441000017041708170C170017180F88510704722
:1044200010B5FFF7F3FFBDE8104000F0F3B82DE939
:10443000F04153484FF480570780504E0020863695
:10444000504D86F885000221284601F0D3FC30212A
:10445000284601F0CFFCF178284601F0CBFCB1787A
:10446000284601F0C7FC96F88500B178A846484078
:1044700086F8850000240CE035194046697901F082
:10448000B9FC96F8850069794840641C86F8850077
:10449000E4B2F078A042EFD8C1B24446404601F001
:1044A000A9FC0321204601F0A5FC3548801C0780AB
:1044B000BDE8F0812DE9F041304D28780128F7D092
:1044C00001F03EFB041EF3DB2F4E0027024637703F
:1044D00069782EA002F07CF86978012003291CD0AD
:1044E00005DC59B101290DD002293FD10EE00A297E
:1044F00023D0C82934D0C92938D133E0022C2DD09B
:10450000307036E0302CFBD1022027E003206870A9
:1045100085F88570EC702F7128E04D2C05D04F2C5C
:1045200003D0532C01D0542CEAD1AC7095F88500FF
:10453000604085F885000A2010E010482979401D68
:104540000C542879401CC0B2287195F88510614040
:1045500085F88510E978884208D3C820687005E09E
:10456000C920FBE7032CCBD128706F70307800286E
:104570009ED0BDE8F04149E79AE700006C020020B8
:1045800018080240004800400200002072733436D0
:10459000352D25642D25780A0000000070B51C4DCE
:1045A0000446C1B2284601F0C0FA4021284601F075
:1045B000C0FA0028F9D0204670BD10B501F0C0FA4D
:1045C0000446401CFAD0E1B2114801F0AEFA204690
:1045D00010BDC1B20E4801F0A8BA4FF0FF307047CD
:1045E000FEE703E0272100BF491EFCD20100A0F135
:1045F0000100F7D170474FF47A71484303E0272157
:1046000000BF491EFCD20100A0F10100F7D17047A4
:10461000004400400021D74801220170417082709F
:10462000C170017180F88910704770B5D44AD34BBE
:104630000C46D1499D1C9279112857D00EDC0128D7
:1046400031D0022835D0102807D1E4074FF400708C
:104650004FF4806145D01880298070BD12284FD05A
:104660001328FAD122461146C6A001F0B1FFCC486A
:1046700021B2E20B018009B28AB2CAA001F0A8FF00
:1046800022460421A02000F03EFE0223CB4A042152
:10469000A02000F06CFEC94842780178BDE8704067
:1046A000C7A001F095BF04F00100BDE8704001F023
:1046B000B3BE00EE104AC84AB8EE400A10EE100A27
:1046C00081ED000A904202DD9FEDC40A06E010EE83
:1046D000100AC34A9042C0DAB3EE040A81ED000A20
:1046E00070BD002AFCD12880198070BDE1074FF40D
:1046F000006008E0188070BD002AFCD1288070BDE1
:10470000E1074FF480500029F6D0F3E770B500249C
:10471000984DB44E07E0281990F84510304601F046
:1047200069FB641CE4B22879A042F4D870BD9C49AE
:104730000346914A0020B1F90010072B38D008DC5D
:10474000012B0CD0052B0FD0062B01D1A6480078E9
:104750007047082B2ED0132BFAD188B27047A3488C
:10476000007800F001007047A14AA24B12689A42FB
:10477000F9DCA14A5FF0010092ED000A02EB800330
:10478000401CD3ED000AC0B20A2830EE800AF5D3EF
:10479000B2EE041AC0EE010A00EE101AB8EEC00A1A
:1047A00030EEC00ABCEEC00A10EE100A80B27047AC
:1047B0006520704792ED000AF4E72DE9F041DFF83B
:1047C000B4C10E460CF18C0C034600210CF14504DB
:1047D00001200855035502215000085503201746B3
:1047E0008CF80400002517E03046761CB6B2FFF7BF
:1047F0009EFF9CF80430020A01461A559CF80420DA
:10480000521CD2B28CF8042011559CF80410491C9B
:104810006D1C8CF80410EDB2BD42E5D365469CF8E2
:104820000410204600F0EAF8A5F886002979000A6D
:104830006C4E08552879401CC0B22871B5F8861016
:1048400001552879401C2871002407E0281990F8A8
:104850004510304601F0CEFA641CE4B22879A0423B
:10486000F4D8BDE8F08170B54248B0F8472090F820
:104870004610B0F8490055BA44BA03290AD00429B1
:104880000CD0062910D1FFF741FF21462846BDE88C
:104890007040CAE622462946032002E02246294605
:1048A0000420BDE8704088E770BD2DE9F04101F0BB
:1048B000CFF90028D5DB2F4C04230125A178002651
:1048C00004F145020629CCD2DFE801F02D030C1DCE
:1048D0002E420128C5D1642084F88900B554257181
:1048E000022031E0217988542179491C2171E67038
:1048F000032806D0042804D0062802D036B30320AB
:1049000022E0E370FBE7217988542079401CC1B292
:104910002171E078801C8142A3D1A370104600F081
:104920006DF8A4F886009CE7C12802D1B4F886008F
:10493000000AB4F88610B0EB112F07D12179885402
:104940002079401C20710520A0708AE7A57088E7B7
:10495000C22802D1B4F88600C0B2B4F88610C9B239
:104960008142F3D1217988542079401C2071FFF7CE
:104970007AFFEBE778030020E80A0020180C0240D9
:104980006C02002052656164206F66667365742056
:10499000446174613D5B25645D5B25785D0A0000C0
:1049A0005E02002052656164206F66667365742044
:1049B0003D5B25645D5B25785D0A000000000020FA
:1049C00052656164206F6666736574203D5B25786F
:1049D0005D5B25785D0A00000000C8430000C84305
:1049E0000000A041001001405C02002054020020A1
:1049F000640200200000C844040B002070B50A4D7A
:104A0000FF22134605F5807606E000BF10F8014B43
:104A100054402A5D5A40335D0C00A1F1010189B276
:104A2000F4D143EA022070BD080000207CB50121CA
:104A3000914800F08EFD0121080200F094FD002451
:104A40008E4D00942346032204212846019400F051
:104A500067F900940023032205212846019400F001
:104A60005FF97CBD10B501210C02204600F05EFD0F
:104A70002046BDE81040002100F058BD804B10B525
:104A80001A6840F6FE7102EA0102D0E9001441EA18
:104A90000401D0E9024044EA000441EA040141EA89
:104AA0000201196010BD30B5426841F20C631A4032
:104AB0000C790B6842EA0422134343608268714B0D
:104AC0004D791A40D1E9034323438C6844EA4504F5
:104AD000234313438360C26A097D22F47002491E96
:104AE000C9B242EA0151C16230BD70B5072509293A
:104AF0000AD9C468A1F10A0606EB4606B540AC43E4
:104B0000B3401C43C46007E0046901EB4106B540B3
:104B1000AC43B3401C4304611F23072A09D2446BF2
:104B2000521E02EB820293409C4391400C4344632B
:104B300070BD0D2A09D2046BD21F02EB8202934092
:104B40009C4391400C43046370BDC46A0D3A02EB70
:104B5000820293409C4391400C43C46270BD002983
:104B6000816802D041F4007101E021F4007181609C
:104B700070470029816802D041F4807101E021F47E
:104B80008071816070470029816802D041F0010185
:104B900001E021F0010181607047816841F08041AE
:104BA000816070470246002012680A4200D001204E
:104BB0007047C06C80B2704710B5334C014600237B
:104BC00001222046FFF791FFA06840F08040A060DE
:104BD00010BD70B590B0FFF745FFFFF727FF2A48DB
:104BE00000244C30CDE90040284802A9012531C1FC
:104BF000A802CDE9054040000790800008904011D0
:104C000009900AA9400231C1214E0D9469463046EF
:104C10000E9400F041F80121304600F065F81D487F
:104C2000046044608460C460FFF728FF19481838A6
:104C3000014604600471457184600461124C05757D
:104C40002046FFF730FF002301220E212046FFF708
:104C50004CFF01212046FFF782FF01212046FFF78C
:104C600088FF01212046FFF78EFFA06840F08040BA
:104C7000A06010B070BD00000400400000080240B9
:104C800004230140FDF7FFC000200140080200207E
:104C900010640240A804002030B50368174ACC68AD
:104CA00013400A682243D1E905452C432243CC69CD
:104CB00022430C6A22434C6A22438C6A22434C6B87
:104CC00022438C6B22431A430260426922F007039D
:104CD000D1E90B2422431A4342610A6942604A68BF
:104CE00082608968C16030BD0029016802D041F04E
:104CF000010101E021F00101016070473F801CF0DB
:104D00004B07DB0E9A40C90810B500EB8100016A21
:104D10000F249C40A1430162016A1143016210BD4E
:104D20002DE9F043DDE9078907684D00032404FA03
:104D300005F6B7430760076802FA05FC47EA0C0767
:104D4000076089B2012A01D0022A12D18268B243D7
:104D500082608268AB401A438260426801238B40C4
:104D60009A434260426808FA01F81FFA88F31A432E
:104D70004260C26849008C40A243C260C16809FA1F
:104D800005F941EA0901C160BDE8F083024600204F
:104D90001269CA40D10700D00120704710B5F74909
:104DA000884202D101214C050AE0F549884202D12E
:104DB00001218C0504E0F34988420AD10121CC0588
:104DC000204600F0DAFB2046BDE81040002100F04C
:104DD000D4BB10BD7FB5044680880D4620F03F0649
:104DE000684600F0DEFBE8490298B0FBF1F189B2B9
:104DF0000E43A680228822F001022280E34B2A681B
:104E00009A421BD85200B0FBF2F080B2042800D2C4
:104E10000420491C2184A083208840F001002080C8
:104E2000218841F20C600140A8886A891043084338
:104E30002080A8892989084320817FBDEB88A3F5BC
:104E40003F46FF3E05D102EB4202B0FBF2F080B2DA
:104E500008E002EBC20303EB0212B0FBF2F080B2F7
:104E600040F48040020501D140F001004FF49672F9
:104E700051434FF47A72B1FBF2F140F40040C8E7BD
:104E800041F288310160002181804BF6FF72C280BF
:104E900001814FF4806141810901818170470029BE
:104EA000018802D041F0010101E021F001010180FF
:104EB00070470029018802D041F4807101E021F49B
:104EC0008071018070470029018802D041F400718F
:104ED00001E021F4007101807047838A0022008B79
:104EE00043EA004303F02000814300D10122104631
:104EF000704712B141F0010101E001F0FE010182B1
:104F0000704701827047008AC0B270470020704726
:104F10000029018802D041F4806101E021F4806120
:104F20000180704700220B0F01F0200101D01430E6
:104F300001E0090C18300068084200D00122104638
:104F400070472DE9F0418C46154680460121FFF758
:104F5000B0FF8F4C502626608E4F03E02068411E24
:104F6000216028B139464046FFF7B7FF0028F5D049
:104F70002A4661464046FFF7BCFF26603DB1012D41
:104F800012D019E02068411E216008B914E0824D5A
:104F900040462946FFF7A1FF0028F3D00CE0206827
:104FA000411E216010B907E07A4D6D1C294640462C
:104FB000FFF793FF0028F2D00120BDE8F081002A1E
:104FC000828801D00A4300E08A438280704770B52E
:104FD000054601826E4C502020606F4EB61C04E0E6
:104FE0002068411E2160002806D031462846FFF780
:104FF00074FF0028F4D0012070BD30B58446012133
:10500000FFF786FF624C50202060624D3F3503E081
:105010002268501E20604AB129466046FFF75DFFB6
:105020000028F5D0BCF81000C0B230BD002030BD63
:1050300030B584460021FFF76BFF554C50202060AF
:10504000544D3F3503E02268501E20604AB1294686
:105050006046FFF742FF0028F5D0BCF81000C0B250
:1050600030BD002030BD01212DE77CB5012802D0E4
:1050700002282AD125E00121480500F060FA01212B
:10508000022000F066FA454E042209213046FFF75F
:1050900037FE042208213046FFF732FE00240125A6
:1050A000CDE900540323022209213046FFF738FEE0
:1050B000CDE900540323022208213046FFF730FED9
:1050C00003E00121880500F03AFABDE87C400121A7
:1050D000880300F048BA1FB50446FFF75FFE0020C2
:1050E000ADF804004FF48040FE21ADF80810011126
:1050F000ADF80600ADF80C002448ADF80A10009099
:1051000069462046FFF766FE01212046FFF700FFB3
:1051100001212046FFF7C3FE1FBD0C200100A0F1B6
:105120000100C0B2FAD1704716200100A0F10100C1
:10513000C0B2FAD170471CB501200090034601901F
:10514000002208211548FFF7EBFD1CBD1CB501210D
:105150000020CDE900010B460A4608210F48FFF761
:10516000DFFD1CBD1CB501210020CDE900010B466F
:105170000A4609210948FFF7D3FD1CBD0054004031
:1051800000580040005C004040420F00A086010033
:105190000C0200200100030082000700000402400E
:1051A000A5494FF4807008807047A3494FF4807080
:1051B000891C08807047A0494FF400700880ACE754
:1051C0009D494FF40070891C0880A6E79A48082181
:1051D0001838FFF7DBBD984800B54FF480720280A5
:1051E000FFF7E9FFFFF7A0FF9348801C0280FFF75D
:1051F0009BFFFFF7E5FF5DF804EB95E78E4800B5F0
:10520000801C4FF480720280FFF7DAFFFFF78CFFFB
:10521000FFF7D1FFFFF788FF8748028000BD70B518
:1052200085494FF480700880FFF785FFFFF77CFF0A
:10523000FFF7C1FF5FF00005FFF7C8FF040003D0D0
:105240006D1CEDB2322DF7D3FFF7BAFFFFF76CFFFD
:10525000FFF77CFF204670BD774900B5891C4FF4ED
:1052600080700880FFF7A7FFFFF757FF5DF804EB9A
:10527000A6E770B503468022FFF7A2FFFFF74DFFB8
:105280006D4DAC15AE1C1A4201D02C8000E034806C
:10529000FFF743FFFFF78FFFFFF746FFFFF790FF92
:1052A000FFF73BFF5208EED1FFF7B9FF012801D00D
:1052B000002070BDFFF7A2FFFFF72FFF012070BD98
:1052C00070B500258024FFF77BFF5B4960000880F4
:1052D000FFF731FFFFF728FFFFF76DFFFFF71DFF17
:1052E000FFF774FF08B1254300E0A5436408FFF70A
:1052F00067FF002CEED1FFF729FF29464FA001F0F0
:1053000067F9284670BD2DE9F0410D461646FF2489
:105310004FEA0007FFF75FFF3846FFF7AAFF641E5A
:1053200014F0FF0403D020B1FFF7FEFEF2E749A01E
:1053300013E0280AFFF79DFF08B14CA00DE0E8B28A
:10534000FFF797FF0028F8D1300AFFF792FF18B94E
:10535000F0B2FFF78EFF20B14AA001F039F9022028
:105360002BE6FFF74BFFFFF7DFFE002025E62DE9D8
:10537000F0470F4616461D46FF2440F001098046BF
:10538000FFF729FF4046FFF774FF641E14F0FF0487
:1053900003D020B1FFF7C8FEF2E72EA00EE0380AD6
:1053A000FFF767FF08B131A008E0F8B2FFF761FF2F
:1053B0000028F8D1FFF722FF06E038A001F008F935
:1053C0000220BDE8F08790B1FFF7AEFEFFF703FFC4
:1053D0004846FFF74EFF641E14F0FF04F3D1ECE7DC
:1053E000FFF76EFF06F8010B55B1FFF735FF2800F8
:1053F000A5F10105EDB2F3D1FFF700FF0020E0E7D2
:105400000D494FF480700880FFF7D5FEFFF785FE49
:10541000FFF7D6FEFFF781FEFFF7CDFEECE710B5F4
:10542000FFF7A0FEFFF792FEFFF77EFEFFF7E6FE16
:10543000BDE8104078E6000018040240494E545F71
:10544000535720525F49324320524541442025782A
:10545000200D0A00494E545F535720575F4932438D
:1054600020534C562065720D0A000000494E545FCF
:10547000535720575F49324320616464722065723C
:105480000D0A0000494E545F535720575F4932437D
:1054900020446174612065720D0A0000494E545F1A
:1054A000535720525F49324320534C562065720DAA
:1054B0000A00000070B50F21C478027801234FF074
:1054C000E026E4B15C4C246804F4E064C4F5E064D4
:1054D000C4F30724C4F10405E1404478AC40857866
:1054E0000D402543554C29011155007800F01F014E
:1054F0008B40400906EB8000C0F8003170BD02F01F
:105500001F008340500906EB8000C0F8803170BD59
:1055100008B58DF800008DF8012001208DF80200FB
:105520008DF803006846FFF7C5FF08BD444A00290F
:10553000116801D0014300E0814311607047404A87
:105540001C320029116801D0014300E08143116041
:1055500070473B4A0C320029116801D0014300E03A
:10556000814311607047364A20320029116801D00A
:10557000014300E0814311607047314A121F002946
:10558000116801D0014300E08143116070472C4A4B
:10559000143A0029116801D0014300E081431160F1
:1055A0007047274B30B51C3B1968264A11F00C0197
:1055B00004D0254D042903D0082903D002601DE042
:1055C00005601BE01E4920390C68C4F3805C0C6840
:1055D000BCF1000F04F03F0402D0B5FBF4F201E08F
:1055E000B2FBF4F20C680968C4F388146243C1F397
:1055F0000141491C4900B2FBF1F101601968134AED
:1056000001F0F0010909545C0168E14041601C6847
:1056100004F4E054A40A145D21FA04F484601B68C5
:1056200003F460435B0BD25CD140C16030BD0849DC
:1056300008430149086070470CED00E000E400E019
:10564000243802400024F40040787D01100200203C
:105650000000FA0530B5038841F20C6213400A8855
:105660004C88CD8822438C882C4322430C892243CA
:105670004C8922438C892243CC8922431A430280DD
:10568000828B22F400628283098A018230BD002964
:10569000018802D041F0400101E021F04001018089
:1056A00070470246002012890A4200D0012070474C
:1056B00000207047818170478089704730B5724BF8
:1056C0004FF4805484460D461C6004E01A68501E56
:1056D0001860002A18D002216046FFF7E2FF002878
:1056E000F4D0ACF80C501C6004E01968481E186037
:1056F000002909D001216046FFF7D3FF0028F4D02C
:10570000BCF80C00C0B2186030BD10B55E4B4FF451
:10571000805484461C6003E01968481E1860C1B1BB
:1057200002216046FFF7BDFF0028F5D00020ACF84D
:105730000C001C6003E01968481E186049B1012183
:105740006046FFF7AEFF0028F5D0BCF80C00C0B2F1
:1057500010BD002010BD2DE9F04180460125280331
:105760004A4F00244A4E88B0012931D00021FFF76A
:10577000FAFE009401230022052138460194FFF728
:10578000CFFA009401230022062138460194FFF746
:10579000C7FA009401230022072138460194FFF73D
:1057A000BFFA012300220B213046CDE90045FFF767
:1057B000B7FA012300220C213046CDE90045FFF75E
:1057C000AFFA00214046FFF762FF08B0BDE8F08164
:1057D0000121FFF7C8FE01210846FFF7BAFE0522A6
:1057E00011463846FFF78CFA052207213846FFF7A5
:1057F00087FA052206213846FFF782FA0094032330
:105800000222052138460194FFF78AFA0323022277
:1058100006213846CDE90045FFF782FA032302222C
:1058200007213846CDE90045FFF77AFA0323012224
:105830000B213046CDE90045FFF772FA0323012220
:105840000C213046CDE90045FFF76AFAADF8084073
:105850004FF48270ADF80A00ADF810404FF40070BC
:10586000ADF812000820ADF814000720ADF80C4088
:10587000ADF81800ADF80E40ADF8164002A940464C
:10588000FFF7E8FE01219DE7200200200000024012
:10589000001402400029018802D041F0010101E01A
:1058A00021F0010101807047002A828901D00A435A
:1058B00000E08A4382817047C9430182704730B556
:1058C0000288554B554C98420DD0A0420BD0B0F1F8
:1058D000804F08D0524DA84205D0524DA84202D068
:1058E000514DA84204D122F0700C4A8842EA0C02C1
:1058F0004E4DA84207D04E4DA84204D022F4407C21
:105900000A8942EA0C0202804A68C2620A88028559
:10591000984201D0A04201D1897A01860121818279
:1059200030BD2DE9FE4301210846FFF708FE0024A3
:1059300053266325ADF80060ADF808404FF080476E
:105940000195ADF802408DF80A4069463846FFF7E8
:10595000B6FF4FF6FE78A7F81080012211463846B0
:10596000FFF7A2FF01210220FFF7E9FDADF800607B
:10597000ADF80840ADF802408DF80A40284C01957A
:1059800069462046FFF79BFFA4F8108001221146CC
:105990002046FFF789FF01212046FFF77BFFBDE886
:1059A000FE83038A002280890B4200EA010001D0B5
:1059B00000B1012210467047406B70474163704749
:1059C000C162704710B501218C072046FFF7E9FF3F
:1059D00000280BD04FF6FE70208200F0EFFC606BC9
:1059E000144908800A206063C820E06210BD10B529
:1059F0000B4C01212046FFF7D4FF00280BD04FF6B7
:105A0000FE70208200F043FC606B0A4908800A2087
:105A100060636320E06210BD0000014000040140AB
:105A20000004004000080040000C0040001000404E
:105A300000140040240200207FB50446008A0D4671
:105A400020F44051E88808432082A08941F20C618B
:105A50008843A9882A8911436A8902431143A18195
:105A6000A08A20F44071A8890843A0826846FFF705
:105A700098FDE648844202D0E548844201D103986B
:105A800000E00298A1890904002900EBC00101EBA4
:105A90000010296802DA4FEA410101E04FEA810172
:105AA000B0FBF1F06422B0FBF2F14FEA01114FEAD2
:105AB00011136FF018056B4300EB8300A3891D04DD
:105AC0004FF0320306D503EBC000B0FBF2F000F05C
:105AD000070005E003EB0010B0FBF2F000F00F0050
:105AE000084320817FBDC1F3421301F01F0C012147
:105AF00001FA0CF1012B07D0022B07D01430002A39
:105B0000026805D00A4304E00C30F8E71030F6E7ED
:105B10008A43026070470029818902D041F4005114
:105B200001E021F4005181817047C1F308018180B7
:105B300070470246002012880A4200D001207047B8
:105B4000B4480146D1E90021521A1204120C05D0C2
:105B500050FA81F2491C4160107A70474FF0FF30D3
:105B6000704730B5AC48028800F10403910612D5A5
:105B7000018821F020010180A649D1E900C4ACEBE5
:105B80000404240A07D11C8851FA8CF52C720C6885
:105B900004F101040C6011060ED5018821F080018A
:105BA00001809E48D0E900218A4206D050FA81F255
:105BB000127A1A80491C416030BD97480C30018828
:105BC00021F08001018030BD95480146D1E90021D6
:105BD000521A1204120C05D050FA81F2491C41608D
:105BE000107A70474FF0FF30704730B58D4802880B
:105BF00000F10403910612D5018821F020010180F3
:105C00008749D1E900C4ACEB0404240A07D11C88FD
:105C100051FA8CF52C720C6804F101040C60110629
:105C20000ED5018821F0800101807F48D0E9002154
:105C30008A4206D050FA81F2127A1A80491C4160D9
:105C400030BD78480C30018821F08001018030BDE2
:105C500076480146D1E90021521A1204120C05D0EF
:105C600050FA81F2491C4160107A70474FF0FF30C2
:105C70007047664810B50288910612D5018821F058
:105C8000200101806949D1E90034A3EB0404240A0E
:105C900007D1848851FA83F31C720B6803F1010366
:105CA0000B6011060ED5018821F08001018060494A
:105CB000D1E90032934206D051FA82F31B7A8380F5
:105CC000521C4A6010BD818921F08001818110BD84
:105CD0007CB501210720FFF73CFC01211020FFF7D4
:105CE00042FC01214FF4C020FFF729FC514E07224E
:105CF00002213046FFF704F8012400250223CDE9F4
:105D000000541A4619463046FFF70AF807220321C5
:105D10003046FEF7F5FFCDE9005402231A46032171
:105D20003046FEF7FDFF444E072206213046FEF7BF
:105D3000E7FFCDE9005402231A4606213046FEF75C
:105D4000EFFF072211463046FEF7DAFFCDE9005497
:105D500002231A4607213046FEF7E2FF374E07229C
:105D60000A213046FEF7CCFFCDE9005402231A4643
:105D70000A213046FEF7D4FF07220B213046FEF7FA
:105D8000BFFFCDE9005402231A460B213046FEF72F
:105D9000C7FF7CBD1FB504460020ADF8040000918C
:105DA000ADF80600ADF80800ADF80C00012B05D1E8
:105DB000BDF80A0040F00800ADF80A00012A08D03A
:105DC00069462046FFF738FE01212046FFF7A3FE73
:105DD0001FBDBDF80A00694640F00400ADF80A0096
:105DE0002046FFF729FE012240F225512046FFF709
:105DF0007AFEE9E700B50346C8B29880402118460C
:105E0000FFF797FE0028F9D000BD00000010014008
:105E100000140140B804002000480040C0050020E4
:105E2000C806002000440040D0070020D808002009
:105E3000E009002000000240000402400008024087
:105E4000354810B5016841F47001016033480168BC
:105E500041F001010160314A0021083211600268FD
:105E60002F4B1A400260031D2E4A1A60026822F46A
:105E70008022026029480C30016000F006F82649B3
:105E80004FF000608039086010BD244900200A6886
:105E900042F480320A604FF4A0630A6800F1010006
:105EA00012F4003F01D19842F7D10868800331D540
:105EB0001A484030026842F0805202601A48026874
:105EC00042F48042026015480830026802600268AD
:105ED00042F400420260026842F4A0520260031FD2
:105EE000124A1A600A6842F080720A600A689201D7
:105EF000FCD50F4A40F205611160016821F00301F1
:105F00000160016841F0020101600168C1F3810193
:105F10000229FAD17047000088ED00E00038024005
:105F2000FFFFF6FE103000240070004019544007B7
:105F3000003C024010B5AB48008801F0D8FD9FED51
:105F4000AA1B53EC112B01F04DFC9FEDA91B53EC48
:105F5000112B01F0DFFD01F09DFDA749488010BD28
:105F6000A04810B5008801F0C2FD9FEDA41B53ECC2
:105F7000112B01F0CFFD01F08DFD9F49488010BD30
:105F800070B59D4C207838B1251D012806D0022817
:105F900009D003280FD10AE00F2005E0FFF7CAFF60
:105FA0006088288007E00E20FEF706FE03E0FFF77A
:105FB000D7FF608868802078401CC0B22070042819
:105FC00001D30020207070BD704710B5FEF728FA8D
:105FD00089490020087010BD8C4A8A498A48B2F964
:105FE000002091ED002A00EE102A894AF6EE000A00
:105FF000B8EEC00AF0EE001AB7EE001A32EE000A50
:1060000091ED012A30EE420A10EE101A914204DCA2
:1060100010EE101A7F4A914202D99FED7F2A03E0C9
:10602000DFED7E0A9FED7E2A7349D1ED022A30EE24
:10603000623A63EE200A22EE003A60EE810A83EEB5
:10604000012AB0EE401A02EEE11AD1ED042A31EE37
:10605000221A21EE211A70EE820A70EE810A91ED69
:10606000031A70EE810AB1EE081A70EE810AFDEE95
:10607000E00A10EE902A13B243808A680A61002277
:1060800081ED020A002B00DA4280B0F90210642987
:1060900004DD64214180642900DD4180B0F90210F3
:1060A000002900DA428070475E4988700120C8707C
:1060B00006204871FEF7BBB970B55B4C514A207899
:1060C000012849D1204694F802C081794079BCF179
:1060D0004D0F63D02346BCF14F0FDB793DD0BCF1AF
:1060E000530F05D0BCF1540F34D100F095F92DE0D9
:1060F000303800EBC00505EB001003EB80004B4B84
:1061000001EB810103EB4101084400EE100A48490C
:10611000B8EEC00A10EE100A82ED000A884202DDD5
:106120009FED440A06E010EE100A4349884203DA64
:10613000B3EE040A82ED000A10EE100A01F0E8FD49
:1061400041EC100B3DA053EC102B24E094F802001E
:10615000FFF7AAFF0020207070BD303901EB8101EC
:106160006FF02F0202EB41015A1828492D280A80AE
:1061700001D1504208800888042182B2A020FFF794
:10618000C2F80223314A0421A020FFF7F0F82F487B
:10619000427801782EA000F01BFAD7E7324A931C10
:1061A000012804D002280FD0032819D10FE04FF4A2
:1061B00000704500012901D019B111E010801D8047
:1061C0000EE0188015800BE04FF4006001E04FF402
:1061D0008050012901D011B102E0108000E0188048
:1061E0006046B5E7080200202D431CEBE236FA3F7B
:1061F000D122DBF97E6AF43F2802002066666666DB
:1062000066660240E80A0020560200205E02002076
:106210000000C8420000C8C2CDCCCC3ECDCC4C3E24
:106220009A99193FF20200206C020020F0FDFFFF56
:106230000000C8430000C8430000A041536574201B
:1062400054656D703D25660A0000000000000020C6
:1062500052656164206F6666736574203D5B2578C6
:106260005D5B25785D0A0000180C02405448C37934
:106270000221544A012B03D00123C37111837047BB
:106280000023C3715183704770477047704730B522
:106290004B4C207A401CC0B22072092830D900250E
:1062A0002572E068401CE060092800DDE560206997
:1062B000401C2061632800DB25616069401C60612F
:1062C000B0F5F97F02DD6561FFF7D0FF0120E070D6
:1062D0002178491CC9B22170092911D92071257072
:1062E0006178491CC9B26170092909D9657060716A
:1062F000A178491CC9B2A170042901D9A570A07167
:1063000030BD30B53148304D2DED048B8DB0B0F936
:106310000040D5ED010A00EE104AB8EEC00A30EE9A
:10632000800A10EE100A01F0F3FC41EC190B28680A
:1063300001F0EEFC41EC180B2548006801F0E8FC88
:1063400041EC100B234806A901AD0078CDE90A0401
:106350000C94214881EC048BB0F90240B0F9003074
:10636000B0F904201D4841881EC50088009053ECF8
:10637000102B1BA000F02CF90DB0BDEC048B30BD30
:106380007047704710B5FFF7FBFDBDE81040FFF701
:1063900093BE70B50A4C0025E07810B1FFF7F2FF0C
:1063A000E570207900B12571607900B16571A0793F
:1063B000002802D0FFF7A5FFA57170BD00F053B80B
:1063C0003C02002000100240E80A00205E0200208B
:1063D0006402002054020020560200202C020020FB
:1063E000543D5B25665D20563D25643D2C20693D6E
:1063F00025642D5B25642C25642C25645D2D2D5B87
:1064000025665D5B25665D2C5B25645D2C205B2528
:10641000642C25785D0A00001F4A10B592ED000A31
:106420001E49B5EEC00AF1EE10FA03D19FED1C0A29
:1064300082ED000A64220A8032224A8017495207FC
:10644000891E0128087007D000211046FFF722FAA4
:1064500014498020088010BDBDE81040012110467D
:10646000FFF718BA70470D4810B5B0F90410802333
:106470004A1C12B28280B0F90040A14204DB002124
:1064800081800848801E04E0B0F90200824201DBEE
:106490000448038010BD0000E80A002056020020D6
:1064A0000000C8421A1402403F498A14012801D052
:1064B0000A8070474FF4006008803B48801C0280CF
:1064C00070472DE9F041394C0120FFF7EDFFDFF86F
:1064D000E0804046FFF719F905464046FFF715F9F9
:1064E00007464046FFF711F906464046FFF70DF90B
:1064F0000246A80140EA9700410BCD072D492E4BDB
:1065000038D021EA000080B200EE100AFDEE000A49
:10651000B8EE400A300140EA1210C20A20EE200A0A
:10652000D20783ED010A2CD0814388B200EE100A15
:10653000DFED220AB8EE400A002020EE200A83EDAB
:10654000020AFFF7B1FF1E49187893ED010A01EB2B
:106550008001401C81ED000AC1B2002019700A2997
:1065600000D31870174984ED010A0A781649012AE8
:106570000ED015E000EE100AF5EE000AB8EE400A63
:10658000C8E700EE100ADFED110AB8EE400AD3E7C3
:10659000D4ED000AF4EEC00AF1EE10FA00D20120A8
:1065A0000870BDE8F081000018140240E80A0020DD
:1065B00000300140FFFF030060020020000080BDAA
:1065C000040B0020540200205C0200200000803DEB
:1065D0000FB4044910B503AA029800F07DFB10BC6B
:1065E0005DF814FB040000202DE9F041074600256A
:1065F00010687529394616A411D0AFF30080002821
:1066000003DAC0F1000013A407E039688A0701D556
:1066100011A402E0490704D510A4012501E0AFF35D
:10662000008000210A2307F1240607E0B0FBF3F203
:1066300003FB1200303070541046491C0028F5D17D
:106640002B4622463846BDE8F04100F0D8B800009D
:10665000000000002D0000002B00000020000000C2
:1066600070B504460D4621461068AFF300802168DE
:10667000090502D5104A7A4402E00F4A7A440E32E4
:10668000002104F1240307E000F00F064FEA101088
:10669000965D5E5401F101010028F5D103462068A2
:1066A000000704D5702D02D009B111320223204613
:1066B000BDE8704000F0A3B8861700002DE9F05F38
:1066C000044689464FF0000ADFF828B1FB44C0F8C1
:1066D00020A02046E168884700287CD0252806D0E5
:1066E000D4E901219047206A401C2062F1E700258F
:1066F0005F462046E16888472028064608DB312EA1
:1067000006D207EB060010F8200C08B10543F0E7AD
:10671000A80701D525F00405C4F81CA00027C4F87B
:1067200018A02A2E09D0304601F03FF838B304EB08
:106730008708303EC8F8186019E059F8041B204655
:1067400004EB87029161E1688847012F064618D162
:10675000E069002820DA25F020051DE0D8F81800AF
:1067600000EB800006EB40003038C8F818002046E7
:10677000E1688847064601F018F80028EED1012F9D
:106780000AD02E2E08D12046E16888477F1C064695
:10679000022F45F02005C4DBA069002803DA40423F
:1067A00045F00105A061E80701D025F0100596B17C
:1067B000A6F14100192802D8203645F400654A4662
:1067C0003146204625604D46FDF71AFC60B1012890
:1067D00007D0ED1D00E009E025F0070000F10809F1
:1067E00077E705F1040974E7304679E7206ABDE8E8
:1067F000F09F0000581700007047704770472DE960
:10680000F0470D4604469246994600F12408016877
:10681000880604D5E06921F01001216000E0012024
:10682000A84202DDA0EB050700E00027A16907EB05
:10683000050202EB0900A1EB0000A0612068C00680
:1068400002D42046AFF30080002608E0D4E90121FD
:106850001AF806009047206A401C761C20624E45BC
:10686000F4DB2068C0060AD52046AFF3008006E0BE
:10687000D4E9012130209047206A401C2062381E54
:10688000A7F10107F4DC07E0D4E9012118F80500BD
:106890009047206A401C2062281EA5F10105F3DC08
:1068A0002046AFF300802068000602D50220BDE834
:1068B000F0870120FBE770472DE9FF4F0C461E468D
:1068C0004FF0FF378BB0D2E90001DDF860800A900D
:1068D0008A46C1F30A5505B93D46002108464FF0E6
:1068E0000000BAF1000F00F4400005DA00EB800070
:1068F0004FF4400101EA50004FEA9059B9F1010FFD
:1069000000DDB9460A9850EA4A000FD044F610500C
:10691000A5F2FF3545432F14B8F1000F1FD0754283
:10692000291E1FDD4846C9F100021CE0B8F1010F25
:106930004FF0000001D1F24307E0302101E0215483
:10694000401CB042FBDB30460022002121540B9951
:10695000C1F80880C1E900200FB0BDE8F08FBD1B71
:106960006D1CDDE74A4600DA694206A800F068FAC5
:1069700006AB07CB03AB07C350460A9900F042FBB6
:106980008DE80700A0F500501F3800900398002DF7
:1069900009DD42F21F014A46084403A903906846F4
:1069A00000F0A1FD08E0A0F500504A461F3803A9F9
:1069B0000390684600F0ABFD8DE807000004000C72
:1069C00003D04FF0FF30410800E01046B8F1000F4F
:1069D00003D00022009215461FE0751E06D400F079
:1069E00091F902F1300262556D1EF8D5B3460122CD
:1069F000084302D000227F1C04E02078302801D117
:106A000000227F1E002A099786D01DE0112D07DA8B
:106A100000F078F9303262556D1C50EA0102F5D170
:106A200008430FD10021681E05E0235C625C6354BB
:106A3000491C2254401E8142F7DBAB46A81B401E76
:106A4000099001E0009848B1002004F80B000B9871
:106A5000099AC0F80880C0E9002B7DE711264FF0A5
:106A6000000859E72DE9F04F88460446D21D22F070
:106A7000070191B0D1E90001CDE90A0100F07DFEE6
:106A800002460B98C00F01D02D2007E02068810737
:106A900001D52B2002E0202101EAC000032A099041
:106AA00001D0072A05DB03464146204600F088F95D
:106AB0000EE12068800601D5E06900E00620B8F10B
:106AC000650F814606D0B8F1660F18D0B8F1670F90
:106AD00072D132E00020B9F1110F009001DB1123D7
:106AE00001E009F101030AAA01A90CA8FFF7E4FEDD
:106AF000DDE90C70002609F10105834648E001201C
:106B00004B4600904FF000470AAA01A90CA8FFF7D6
:106B1000D3FEDDE90C050E990026AB4619B909F143
:106B2000010100EB0105B9EB050003D4C0F1FF360C
:106B300009F10105A5EB09002BE0B9F1010F01DA1C
:106B40004FF001090020B9F1110F0090484601DD16
:106B5000112300E003460AAA01A90CA8FFF7ACFE26
:106B6000DDE90C704D4600268346206800070AD4F4
:106B7000AB4500DA5D4601A8012D04DD411911F88D
:106B8000011C302907D04F4502DA17F1040F04DA4F
:106B90000120824610E06D1EEEE7002F02DCED1BA7
:106BA0003E4403E0781CA84200DD0546A7EB060042
:106BB00000F1010A4FF000472068000703D4AA45FE
:106BC00001DB4FF0FF3A0021B7F1004F0DF1430810
:106BD0008DF8431022D002202B23002F01DA7F42B0
:106BE0002D230A22011EA0F1010000DC4FB197FB0A
:106BF000F2F102FB117C0F460CF1300C08F801CDCC
:106C0000F0E7A8F1010003702168090501D54521CD
:106C100000E06521A0F1010800F8011C09980FA906
:106C2000A1EB080707F1070700B1012000EB050100
:106C300001EBEA70A1693844A1EB0000A0F101006A
:106C4000A0612068C00602D42046AFF300800998F6
:106C500030B1D4E901219047206A00F1010020629F
:106C60002068C00620D52046AFF300801CE0002E2F
:106C700004DBB34502DD01A8805D00E03020D4E9EB
:106C800001219047206A761C401CBAF1010A20625B
:106C90000AD100F033F8C0680168405CD4E90121F2
:106CA0009047206A401C2062281EA5F10105DEDC09
:106CB00007E0D4E9012118F8010B9047206A401C35
:106CC0002062381EA7F10107F3DC2046AFF30080F5
:106CD000022011B041E60000074B70B50C467B4422
:106CE00000F05BF805462046FDF777FC10B14FF049
:106CF000FF3070BD284670BDBBD8FFFF004870470D
:106D00004C0B002030B5B0F10A024FEA900E71F141
:106D100000034EEA817EB0EB0E0061EB91014FEA79
:106D2000101E4EEA017E10EB0E0041EB11114FEAEE
:106D3000102E4EEA016E10EB0E0041EB11214FEACE
:106D4000104E4EEA014E10EB0E0041EB114140187F
:106D500041F100014FEAD00040EA41704FEAD10111
:106D600010EB80054FEA810444EA907444EB01047F
:106D70006D1944EB0404521BA3414FF0000348BFBC
:106D80000A3200D530BD401C41F1000130BD000089
:106D900001694A1C02610878704700B58FB0CDE9DF
:106DA00001310021059105497944CDE903101146CF
:106DB0006846FFF783FC0FB000BD0000E5FFFFFF52
:106DC0002DE9F04104461F4603260168072A01F415
:106DD000006004DB08B116A505E016A503E008B1C4
:106DE00015A500E015A521F010002060A069C01EC7
:106DF000A0610FB1401EA0612046AFF300804FB1EB
:106E0000D4E9012138469047206A401C2062C01C0A
:106E1000206206E0206AFAE7D4E9012115F8010BA7
:106E20009047761EF8D22046AFF30080BDE8F0818F
:106E30004E414E006E616E00494E4600696E66001E
:106E40002DE9F047814616468AB035487844D0E9A6
:106E5000002380680092CDE90130314878440C3835
:106E6000D0E90223006903924FF03702CDE90430E4
:106E700041F69B30014491FBF2F0A0F1800502FB4A
:106E800010141B3C02D56442012000E00020DFF812
:106E900090A080460027FA44AAF1C60A0DE0E00758
:106EA00009D03246684607EB47010AEB810100F042
:106EB0002EFB8DE8070064107F1C002CEFD1184FCB
:106EC0007F44B43F17E0E80713D007EB04100DF13F
:106ED000180A90E80E00AAE80E00C068F04201D13E
:106EE00098190890324606A903A800F010FB03ABDE
:106EF00007C36D10641C002DE5D132466946B8F118
:106F0000000F03A802D000F0EEFA01E000F0FFFA53
:106F1000C9E90001C9F808200AB0BDE8F0870000FF
:106F200068100000004870472C0B00207546FFF7E2
:106F3000F9FFAE4605006946534620F00700854636
:106F400018B020B5FDF792F8BDE820404FF00006DC
:106F50004FF000074FF000084FF0000B21F0070141
:106F6000AC46ACE8C009ACE8C009ACE8C009ACE884
:106F7000C0098D4670470446AFF300802046FDF7F8
:106F800061F800004FF0013C50F8042B51F8043B2D
:106F90009A4221D1A2EB0C03934313EACC1317D1ED
:106FA00050F8042B51F8043B9A4215D1A2EB0C0384
:106FB000934313EACC130BD150F8042B51F8043B44
:106FC0009A4209D1A2EB0C03934313EACC13DBD012
:106FD0004FF00000704700BFD01A01BAB1FA81F13A
:106FE00001F0180122FA01F0CB40C1F12001DBB21F
:106FF000C0B2C01A2CFA01F3D11A914311EAC3119D
:10700000E6D170475FEA400C08BF91F0000F4FEAED
:107010008C234FEAC12243EA51514FEA1C5018BF5A
:1070200000F5F0404FEA300018BF41F000415FEA40
:107030006C5C00F02980BCF1FF3F08BF40F080404D
:107040007047130C06BF12044FF0100C4FF0000CE9
:10705000130E04BF12020CF1080C130F04BF12012F
:107060000CF1040C930F04BF92000CF1020CD30F2F
:1070700004BF52000CF1010C11464FF00002A0F1C8
:107080001F00A0EB0C00704711F0004F08BF7047C5
:1070900031F000413FF4D5AF0B0C06BF09044FF0AF
:1070A000100C4FF0000C0B0E04BF09020CF1080C81
:1070B0000B0F04BF09010CF1040C8B0F04BF8900F6
:1070C0000CF1020CCB0F04BF49000CF1010CCCF108
:1070D0002003A0EB0C0022FA03F302FA0CF241EABF
:1070E000030100F10100704720F07F4C80EA0300AB
:1070F00023F07F47ACEB070303F57C5300F000401F
:1071000003F1FF032DE980494FEA154B09B44FEA1B
:10711000144325EA0B4E24EA03480FF2042606EB3B
:10712000132749083E785FEA320203FB0667C7F57A
:10713000000707FB06F64FEA54374FEAD64606F13A
:10714000020607FB066CCCF1005C4FEA1C472CEAF8
:10715000074C07FB06F40CFB06F504EB15464FEA5B
:10716000961634BF00204FF000404FEAD13706FB9F
:1071700007FC4FEA1C4C0CFB0BF7D21B03FB0CF774
:1071800061EB07010CFB0EF7B0EB074072EB174207
:107190000CFB08F734BFA2EB0742B2EB074261EBEE
:1071A00017414FEA0C444FEA910706FB07FC4FEAF0
:1071B0001C4C0CFB0BF7B0EBC74072EB573203FBD8
:1071C0000CF734BFA2EBC742B2EBC74261EB5731B9
:1071D0000CFB0EF7B0EBC70072EB57720CFB08F715
:1071E00034BFA2EBC702B2EBC70261EB5771039F3A
:1071F0004FEA816141EA921104EBCC044FEAD137A6
:107200004FEA826206FB07FC42EA90124FEA806076
:107210004FEA1C4C0CFB0BF7D21B03FB0CF761EB8A
:1072200007010CFB0EF7B0EB074072EB17420CFBAB
:1072300008F734BFA2EB0742B2EB074261EB1741FC
:107240004FEA8C554FEA910704EB9C2406FB07FCA0
:107250004FEA1C4C0CFB0BF7B0EBC74072EB5732FC
:1072600003FB0CF734BFA2EBC742B2EBC74261EBA2
:1072700057310CFB0EF7B0EBC70072EB57720CFBEB
:1072800008F734BFA2EBC702B2EBC70261EB57713C
:1072900015EB4C254FEA816141EA92114FEA826277
:1072A0004FEAD13742EA901206FB07FC44F1000492
:1072B0004FEA80604FEA1C4C0CFB0BF7D21B03FB20
:1072C0000CF761EB07010CFB0EF7B0EB074072EB1C
:1072D00017420CFB08F734BFA2EB0742B2EB0742A0
:1072E00061EB174115EB1C154FEA813141EA9241E0
:1072F0004FEA823242EA90424FEA80304FEA0C76FF
:1073000044F1000448EA03434EEA0B484FF0000EF4
:10731000B2EB080C71EB030724BF624639464EEB13
:107320000E0E4FF0000B0018524149414BEB0B0B76
:10733000B2EB080C71EB03077BF1000B24BF624634
:1073400039464EEB0E0E4FF0000B001852414941EA
:107350004BEB0B0BB2EB080C71EB03077BF1000B53
:1073600024BF624639464EEB0E0E51EA020718BFA3
:1073700046F0010616EB0E7655F1000254F10001BD
:1073800003D5BDE88901BDE80088BDE88901BDE8F5
:107390000048B619524141EB0101A3F101037047C6
:1073A00080807F7E7D7C7B7A797877767675747342
:1073B000727171706F6E6E6D6C6C6B6A6A69686801
:1073C000676666656464636362616160605F5F5E97
:1073D0005E5D5D5C5C5B5B5A5A595958585757560D
:1073E0005655555554545353525252515150505072
:1073F0004F4F4F4E4E4D4D4D4C4C4C4B4B4B4A4AC4
:107400004A49494948484847474747464646454507
:107410004544444444434343434242424241414140
:10742000002B26D4770021D01CB54FEA370703B4D0
:107430004FF010004FF010014FF000000FBCBDE8FE
:1074400010400BF1010BBBF1010F08BF5FEA1707FA
:1074500022BF12F1010211F101014FF0004143F18D
:10746000000300F0004043EA00007047F9D35708DA
:10747000DAE746EA064613F1400F4FEA16461FDDEB
:1074800013F1200FDFBF16430A46002120335B4271
:10749000C8D0C3F1200746EA064602FA07F74FEACA
:1074A000164646EA0706C3F1200722FA03F201FA5C
:1074B00007F721FA03F14FF0000342EA0702B1E7B0
:1074C00046EA020646EA06464FEA164646EA01063C
:1074D000BCBF46EA0646360C4FF000034FF00002F0
:1074E0004FF000019EE72DE9C048934630B491E883
:1074F000380007C831EA400C48BF34EA430C03D5D2
:10750000FFF7F2FDFFF78CFFF0BCBDE800882DE926
:10751000C048934630B491E8380007C810F0804F57
:1075200008BF13F0804F03D100F005F8FFF778FF94
:10753000F0BCBDE8008820F07F4780EA030023F01C
:107540007F4C07EB0C03A3F57C5300F00040A3F144
:10755000FE0392F0000F00F0B38095F0000F00F0F2
:1075600077802DE901494FEA11404FEA144621EA9C
:10757000004800FB06FC24EA064708FB06F607FB6A
:1075800008F800FB07F718EB06484CEB164C4FEADF
:10759000124B18EB07484FEA15464CEB174022EA0E
:1075A0000B4E0BFB06FC25EA06470EFB06F607FB17
:1075B0000EFE0BFB07F71EEB064E4CEB164C4FF086
:1075C00000061EEB074E4CEB174B18EB0B0840F177
:1075D000000018EB0E0B58EB000840F100008F1A6A
:1075E0004FF000013CBFC943661B14BFB5EB040C50
:1075F00000213CBFC943F61B4FEA17444EEA8E0EEA
:1076000027EA04454FEA1C4704FB07622CEA074CB3
:1076100005FB07F70CFB05F604FB0CFC16EB074615
:1076200042EB174216EB0C4642EB1C421BEB0606E4
:1076300058EB0202414146EA9E0601D5BDE80189A8
:10764000B619524141EB0101A3F10103BDE80189E3
:107650004FEA14454FEA114724EA054621EA074C50
:1076600005FB07F406FB07F70CFB06F105FB0CFC1A
:1076700011EB074144EB17444FEA124711EB0C4161
:1076800044EB1C4422EA074C05FB07F206FB07F714
:107690000CFB06F605FB0CFC16EB074642EB17420B
:1076A00016EB0C4642EB1C456A1854F1000148BF2A
:1076B0007047B619524141EB0101A3F10103704734
:1076C00095F0000F37D04FEA11424FEA144721EAF4
:1076D000024624EA074C02FB07F106FB07F70CFB06
:1076E00006F402FB0CFC14EB074441EB17414FEA94
:1076F000154714EB0C4441EB1C4125EA074C02FBF7
:1077000007F506FB07F70CFB06F602FB0CFC16EB75
:10771000074645EB174516EB0C4645EB1C42121984
:1077200051F1000148BF7047B619524141EB0101C8
:10773000A3F1010370474FEA14454FEA114724EAC9
:10774000054621EA074C05FB07F106FB07F70CFB92
:1077500006F24FF0000605FB0CFC12EB074241EB72
:10776000174112EB0C4251EB1C4148BF7047921875
:1077700041EB0101A3F10103704703B401984100FB
:10778000009850EAC12018BF04204A0D18BF40F0ED
:10779000010040F2FF72B2EB515F08BF40F00200FF
:1077A000012808BF052002B0704730380A2801D2EE
:1077B000012070470020704710B500290AD00878D2
:1077C000002807D005487844FFF7DCFB002801D0EB
:1077D000002010BD0248784410BD00000A070000D8
:1077E000020700002DE9C04130B4DFF8A0C23CEA36
:1077F000111418BF3CEA131400F0EC8081EA030571
:107800001CEA111444EAD57418BF1CEA131500F0E1
:10781000C780A4EB05044FF0004545EAC12145EAC5
:10782000C32341EA505143EA525304F17F74994211
:1078300004F500344FEAC0204FEAC22208BF90424C
:1078400000F09C804FEA13650FF24016765D4FEA18
:10785000134506FB05F7C7F1807706FB07F74FEAEC
:10786000D737A7FB03687642C8F58038A7FB06CE5A
:1078700038BFA8F1010807FB08E64FF0000EA6FB91
:10788000028CE6FB03CEDCF1000CCEF1004E38BFDB
:10789000AEF1010EA6FB0C584FF000074FF00005AB
:1078A000E6FB0E87A1FB08C6A0FB07CE16EB0E0673
:1078B00045F10005E1FB076515F1E04E7EBFA4F53B
:1078C00080345FEA46066D4116F1800745F10005F8
:1078D0004FEA17274FEA066647EA0567A6F1DE4634
:1078E000B6F1805F4FEA15251FD9384624F0010C08
:1078F00005EBC471BCF1FE6F01EB0C1102D8F0BCBA
:10790000BDE8008124425CBF01F5801E9EEAC47F71
:1079100002D4F0BCBDE80081244238D4F0BCA1F10F
:10792000C041BDE8004100F0EDB94FEAD22242EA81
:1079300043524FEAD323A7FB02864FEAD02040EA06
:10794000415007FB03661EEA0E0F4FEAD12105FBEB
:10795000026658BFA6EB0056B6EB00564FEA520E31
:107960004EEAC37E18EB0E0E56EB530EBDD518EB48
:1079700002085E417F1C55F10005B6E74FF4801503
:107980004FF000074FF000064FF00008ADE7F0BCE5
:107990004FF0000001F1C04101F00041BDE800815D
:1079A00011EA0C1F0CEA131500D00CE013EA0C1FAF
:1079B00000F025804FF00000F0BC81EA030101F0E7
:1079C0000041BDE80081F0BCBDE8004181EA03014F
:1079D00000F098B9F0BCBDE8004170B500F044F982
:1079E000097EFC3E00F007B881EA03014FF0000079
:1079F00001F00041704781EA030100F083B9F0BC57
:107A0000BDE800414FF0000021497047FFFDFBF940
:107A1000F7F5F4F2F0EEEDEBE9E8E6E4E3E1E0DEC1
:107A2000DDDBDAD8D7D5D4D3D1D0CFCDCCCBCAC833
:107A3000C7C6C5C4C2C1C0BFBEBDBCBBBAB9B8B75A
:107A4000B6B5B4B3B2B1B0AFAEADACABAAA9A8A84D
:107A5000A7A6A5A4A3A3A2A1A09F9F9E9D9C9C9B1B
:107A60009A999998979796959594939392919190C6
:107A70008F8F8E8E8D8C8C8B8B8A89898888878757
:107A80008685858484838382828181800000FF07CC
:107A90000000F87F4FEA1153A3F58063D3F11E0372
:107AA000A8BFD3F1200C08DB4FF0004242EAC1220C
:107AB00052EA505232FA03F0704709420BD4102BAD
:107AC000C4BF0020704703F5787CBCF1FF3F05D0B0
:107AD0004FF0FF3070474FF00000704770B500F076
:107AE000C3F800BF4992248000207047F0E7B0FA45
:107AF00080F310FA03F10AD0C3F11D0303F580638C
:107B00004FEA41504FEA035202EBD12170474FF048
:107B100000007047DFF848C170B51CEA111E1EBF97
:107B20001CEA13159EEA0C0F95EA0C0F00F06F800B
:107B300081EA030423EA4C134EEAD47E21EA4C1175
:107B400041F4801143F48013AE44A1FB024CA0FB2E
:107B50000365AEF17F7E361955EB0C05A1FB034C96
:107B60004CF10003A0FB021C16EB0C06654153F11F
:107B70000003094218BF46F0010613F4007F0BD141
:107B80004FEA03314FEA0530340341EA155140EA28
:107B900016506FF003020AE04FEAC3214FEAC520F6
:107BA000F40241EA555140EA56506FF0020202EBEE
:107BB0002E4201EB025585EACE710AD05FEA440CF1
:107BC00018BF24F0004450F1000041F1000120EA08
:107BD000D47040F2FE7C624500D270BDA84214BF52
:107BE0004FF080444FF04044002E08BF0024BEF107
:107BF000806FA8BFA1F1C041BDE8704080F28280D3
:107C00004FF0000001F1C04101F0004170479EEAD1
:107C10000C0F0CEA131518BF95EA0C0F06D04FF0A5
:107C2000000081EA030E0EF0004170BD00F01CF868
:107C30008900013E00F007B800F009B84FEA430C94
:107C40005FEA5C5C08D081EA030100F05BB84FEAB0
:107C5000410C5FEA5C5CF6D14FF0000001497047CF
:107C60000000FF070000F87F0EF1020E2EF0030E59
:107C70005EF8046B364205D4012A43EB030515F583
:107C8000001F12D8012841EB010C1CF5001F0CD875
:107C90000ED14FEAD17C15F5001F0CEB4C0C0CF10A
:107CA000020C08BF4CEBD37C04E04FF0080C01E061
:107CB0004FEAD37C0CEB4C0526FA05F606F00706D6
:107CC000B6F1040C06D20EEB860CBDE870404CF009
:107CD000010C6047DFE80CF0090B02024FF0004195
:107CE0004FF00000A1F5002170BD19461046012893
:107CF00051EB010418BFD4F5001484BF002001F03B
:107D0000004170BD0808A0F500114FEA310170472D
:107D100043004FEAD30C4FEA3C0C43401FBF4007DF
:107D20000CF1605113F0FE4F70471CF0006F03D14F
:107D300000200CF0004170470CF0004343EA507003
:107D400010B540EACC0000F00EF800BF0000009231
:107D50004FEA0001FFF7D6BF4FF000414FF000009F
:107D6000A1F5002170470EF1020E2EF0030E5EF811
:107D7000044B244204D44FEA4102B2F17F4F11D8A0
:107D80004FEA4003B3F17F4F0CD80ED14FEAD07CBD
:107D9000B2F17F4F0CEB4C0C0CF1020C08BF4CEB1A
:107DA000D17C04E04FF0080C01E04FEAD17C0CEBF1
:107DB0004C0324FA03F404F00704B4F1040C06D2D3
:107DC0000EEB840CBDE810404CF0010C6047DFE87E
:107DD0000CF0070802024FF00040A0F5800010BD33
:107DE0000846420018BFD2F1807288BF00F0004000
:107DF00010BD4FF04070E1EE100A7047FEF732BE42
:107E000030313233343536373839414243444546D0
:107E100040305800303132333435363738396162CA
:107E200063646566403078000400000800000000CC
:107E300000000002000100001000000002400000ED
:107E4000000000A00000000005400000000000C885
:107E5000000000000C4000000000409C00000000FA
:107E6000194000000020BCBE0000000034400000AB
:107E7000BFC91B8E00000004B5400000504BCFD09E
:107E80006607E2CF010000006C4100003E8251AA6B
:107E9000DFEEA73401000000D9420000DCB5A0E20B
:107EA0003A301F97FFFFFFFFB4450000FD25A0C833
:107EB000E9A3C14FFFFFFFFFFF3F0000000000806C
:107EC00000000000FF3F00000000008000000000F4
:107ED0001C00000043000000F8FFFFFF0C00000042
:0C7EE0000E0000000F0000002E0000004B
:040000050800018965
:00000001FF
